:100000000C942A000C9447000C9447000C94470071
:100010000C9447000C9447000C9447000C94470044
:100020000C9447000C9447000C9447000C94470034
:100030000C9447000C9447000C9447000C94470024
:100040000C9447000C9447000C9447000C94470014
:100050000C94470011241FBECFE5D8E0DEBFCDBF12
:1000600010E0A0E6B0E0E2E7FEE502C005900D92E8
:10007000AE3FB107D9F711E0AEEFB0E001C01D927D
:10008000AE30B107E1F70E94BD2B0C94372F0C94D2
:100090000000EF92FF920F931F937B018C0120E0F1
:1000A00030E040E05FE40E94490388238CF0C801FF
:1000B000B70120E030E040E05FE40E94C1010E940F
:1000C000A9039B01AC01205030404040504806C07D
:1000D000C801B7010E94A9039B01AC01B901CA0183
:1000E0001F910F91FF90EF900895A0E0B0E0EBE733
:1000F000F0E00C94F22EDC012B01FA019C9192307D
:1001000008F439C1EB018881823008F433C194309E
:1001100069F4843009F02FC111969C91119789815F
:10012000981709F428C1AAEDB0E025C1843009F47C
:1001300021C18230A9F4923009F01DC19A01AD01AC
:1001400088E0EA010990AE01E90109929E0181501F
:10015000C1F7E201898111969C918923818308C1AD
:10016000923009F407C112962D903C901397EB0141
:100170008A819B811496AD90BD90CD90DC901797AD
:10018000EC80FD800E811F819101281B390BB90184
:1001900037FF04C066277727621B730B6032710537
:1001A0000CF061C0121613066CF537014801062EDB
:1001B00004C096948794779467940A94D2F721E0C8
:1001C00030E040E050E004C0220F331F441F551FB1
:1001D0006A95D2F721503040404050402E213F21B7
:1001E00040235123211531054105510521F021E01E
:1001F00030E040E050E079018A01E628F72808293C
:1002000019293CC0232BD1F1260E371E350146019A
:10021000062E04C096948794779467940A94D2F734
:1002200021E030E040E050E004C0220F331F441FC3
:10023000551F6A95D2F721503040404050402A2146
:100240003B214C215D21211531054105510521F04E
:1002500021E030E040E050E059016A01A628B728CB
:10026000C828D9280BC0821593052CF01C01AA249C
:10027000BB24650103C0EE24FF24870111969C91E5
:10028000D20111968C91981709F445C0992339F041
:10029000A80197012A193B094C095D0906C0A6016E
:1002A00095012E193F09400B510B57FD08C01182D3
:1002B0003382228224833583468357831DC081E0A5
:1002C00081833382228288279927DC01821B930B4A
:1002D000A40BB50B84839583A683B7830DC0220F2F
:1002E000331F441F551F24833583468357838281E0
:1002F000938101979383828324813581468157813D
:10030000DA01C9010197A109B1098F5F9F4FAF4F72
:10031000BF4328F30BC0918333822282EA0CFB1C7B
:100320000C1D1D1DE482F5820683178383E0808304
:10033000248135814681578157FF1AC0C901AA27F8
:1003400097FDA095BA2F81709070A070B0705695EF
:10035000479537952795822B932BA42BB52B848318
:100360009583A683B7838281938101969383828349
:10037000DF0101C0D201CD01CDB7DEB7E2E10C94BF
:100380000E2FA0E2B0E0E7ECF1E00C94FE2E6983C2
:100390007A838B839C832D833E834F835887E9E048
:1003A000EE2EF12CEC0EFD1ECE010196B7010E943F
:1003B000D2048E010F5E1F4FCE010596B8010E9438
:1003C000D2048A8991E089278A8BC701B801AE01DE
:1003D000475E5F4F0E9475000E94FD03A096E6E015
:1003E0000C941A2FA0E2B0E0E8EFF1E00C94FE2E9E
:1003F00069837A838B839C832D833E834F835887C5
:10040000F9E0EF2EF12CEC0EFD1ECE010196B701A6
:100410000E94D2048E010F5E1F4FCE010596B801D7
:100420000E94D204C701B801AE01475E5F4F0E942F
:1004300075000E94FD03A096E6E00C941A2FA0E23E
:10044000B0E0E5E2F2E00C94F22E69837A838B83CC
:100450009C832D833E834F835887CE010196BE0136
:10046000675F7F4F0E94D204CE010596BE016F5E8A
:100470007F4F0E94D2049985923088F0898982301A
:10048000C8F0943019F4823051F404C0843029F457
:10049000923081F48AED90E0C6C0923049F420E0B9
:1004A0009A858A89981321E02A87CE010996BBC0D4
:1004B000823049F420E09A858A89981321E02A8BBA
:1004C000CE014196B0C02D843E844F8458886D88FB
:1004D0007E888F88988CEE24FF248701AA24BB2471
:1004E000650140E050E060E070E0E0E0F0E0C10174
:1004F00081709070892BE9F0E60CF71C081D191D1E
:100500009A01AB012A0D3B1D4C1D5D1D80E090E062
:10051000A0E0B0E0E614F7040805190520F481E036
:1005200090E0A0E0B0E0BA01A901480F591F6A1F8E
:100530007B1FAA0CBB1CCC1CDD1C97FE08C081E0F5
:1005400090E0A0E0B0E0A82AB92ACA2ADB2A3196B6
:10055000E032F10549F0660C771C881C991C569412
:10056000479437942794C3CFFA85EA892B893C892D
:100570008B859C85280F391F2E5F3F4F17C0CA01FE
:1005800081709070892B61F016950795F794E79428
:1005900080E090E0A0E0B0E8E82AF92A0A2B1B2BC3
:1005A00076956795579547952F5F3F4F77FDE7CF36
:1005B0000CC0440F551F661F771F17FD4160EE0CDE
:1005C000FF1C001F111F21503040403090E05907A0
:1005D00090E0690790E4790760F32B8F3C8FDB0193
:1005E000CA018F779070A070B07080349105A1051A
:1005F000B10561F447FD0AC0E114F10401051105DC
:1006000029F0405C5F4F6F4F7F4F40781A8EFE1786
:1006100011F081E08A8F4D8F5E8F6F8F78A383E01A
:10062000898FCE0149960E94FD03A096E2E10C94C9
:100630000E2FA8E1B0E0EFE1F3E00C94FE2E698309
:100640007A838B839C832D833E834F83588789E0F5
:10065000E82EF12CEC0EFD1ECE010196B7010E9492
:10066000D2048E010F5E1F4FCE010596B8010E9485
:10067000D2048985823040F08989823028F0C70110
:10068000B8010E944A0501C08FEF6896E6E00C941D
:100690001A2FA8E1B0E0EFE4F3E00C94FE2E69839A
:1006A0007A838B839C832D833E834F83588789E095
:1006B000E82EF12CEC0EFD1ECE010196B7010E9432
:1006C000D2048E010F5E1F4FCE010596B8010E9425
:1006D000D2048985823040F08989823028F0C701B0
:1006E000B8010E944A0501C08FEF6896E6E00C94BD
:1006F0001A2FA8E1B0E0EFE7F3E00C94FE2E698337
:100700007A838B839C832D833E834F83588789E034
:10071000E82EF12CEC0EFD1ECE010196B7010E94D1
:10072000D2048E010F5E1F4FCE010596B8010E94C4
:10073000D2048985823040F08989823028F0C7014F
:10074000B8010E944A0501C081E06896E6E00C9479
:100750001A2FACE0B0E0EFEAF3E00C94022F6983CB
:100760007A838B839C83CE010196BE016B5F7F4FA2
:100770000E94D2048D81823061F1823050F1843048
:1007800021F48E81882351F12EC02F81388537FDC9
:1007900020C06E812F3131051CF06623F9F023C093
:1007A0008EE190E0821B930B29853A854B855C8511
:1007B00004C056954795379527958A95D2F76623B5
:1007C000B1F050954095309521953F4F4F4F5F4F79
:1007D0000EC020E030E040E050E009C02FEF3FEFD6
:1007E0004FEF5FE704C020E030E040E050E8B9019F
:1007F000CA012C96E2E00C941E2FDF92EF92FF923A
:100800000F931F93FC01E480F58006811781D1804E
:100810008081823048F480E090E0A0E1B0E0E82AF6
:10082000F92A0A2B1B2BA5C0843009F49FC0823003
:1008300021F4EE24FF24870105C0E114F104010531
:10084000110519F4E0E0F0E096C0628173819FEF3A
:10085000623879070CF05BC022E83FEF261B370BAC
:100860002A3131052CF020E030E040E050E02AC091
:10087000B801A701022E04C0769567955795479554
:100880000A94D2F781E090E0A0E0B0E004C0880FC5
:10089000991FAA1FBB1F2A95D2F70197A109B10979
:1008A0008E219F21A023B1230097A105B10521F03E
:1008B00081E090E0A0E0B0E09A01AB01282B392B59
:1008C0004A2B5B2BDA01C9018F779070A070B07052
:1008D00080349105A105B10539F427FF09C0205CDA
:1008E0003F4F4F4F5F4F04C0215C3F4F4F4F5F4F13
:1008F000E0E0F0E02030A0E03A07A0E04A07A0E402
:100900005A0710F0E1E0F0E079018A0127C0603871
:10091000710564F5FB01E158FF4FD801C7018F77DE
:100920009070A070B07080349105A105B10539F4C4
:10093000E7FE0DC080E490E0A0E0B0E004C08FE3EB
:1009400090E0A0E0B0E0E80EF91E0A1F1B1F17FFA1
:1009500005C016950795F794E794319687E01695AC
:100960000795F794E7948A95D1F705C0EE24FF2404
:100970008701EFEFF0E06E2F679566276795902F60
:100980009F77D794DD24D7948E2F8695492F462BB9
:10099000582F5D29B701CA011F910F91FF90EF9069
:1009A000DF900895FC01DB01408151812281622F9B
:1009B0006F7770E0221F2227221F9381892F880FD3
:1009C000822B282F30E0991F9927991F11969C930D
:1009D000119721153105A9F54115510561057105DD
:1009E00011F482E037C082E89FEF13969C938E93B8
:1009F00012979A01AB0167E0220F331F441F551F66
:100A00006A95D1F783E08C930DC0220F331F441FEA
:100A1000551F12968D919C911397019713969C9355
:100A20008E931297203080E0380780E0480780E4FA
:100A3000580758F314962D933D934D935C93179755
:100A400008952F3F310579F4411551056105710570
:100A500019F484E08C93089564FF03C081E08C93C3
:100A600012C01C9210C02F57304013963C932E9307
:100A7000129783E08C9387E0440F551F661F771F02
:100A80008A95D1F7706414964D935D936D937C9322
:100A9000179708951F93DC01FB019C91923008F495
:100AA00047C08081823008F443C0943051F41196DD
:100AB0001C91843099F58181682F70E0611B710968
:100AC0003FC0843021F0923031F48230B9F181811D
:100AD000882389F12DC011961C9111978230F1F075
:100AE00081811817D9F412962D913C911397828128
:100AF00093818217930794F028173907BCF0149656
:100B00008D919D910D90BC91A02D248135814681C0
:100B10005781281739074A075B0718F4112341F05A
:100B20000AC082179307A407B50740F4112319F0F0
:100B300061E070E005C06FEF7FEF02C060E070E041
:100B4000CB011F910895DF93CF930F92CDB7DEB7FE
:100B50001982AAE2B0E0EAE2F0E0808180618C9341
:100B6000AAE2B0E0EAE2F0E0808188608C93A0E441
:100B7000B0E0E0E4F0E080818F7B8C93AAE2B0E00B
:100B8000EAE2F0E080818B7F8C93A0E4B0E0E0E4C7
:100B9000F0E0808184608C93A0E4B0E0E0E4F0E0D9
:100BA000808182608C93A0E4B0E0E0E4F0E080819A
:100BB0008F7E8C93A0E4B0E0E0E4F0E080818F7D54
:100BC0008C93A0E4B0E0E0E4F0E08081877F8C9338
:100BD000A0E4B0E0E0E4F0E0808180688C93E0E4A1
:100BE000F0E089818083ABE2B0E0EBE2F0E080816D
:100BF0008D7F8C93E9E2F0E087E680830F90CF91C0
:100C0000DF910895DF93CF930F92CDB7DEB789833D
:100C1000EBE2F0E08081829586958770882F90E0E6
:100C2000817090700097A1F3ECE2F0E089818083FD
:100C30000F90CF91DF910895DF93CF93CDB7DEB7BB
:100C4000EBE2F0E080818823DCF7ECE2F0E08081E9
:100C5000CF91DF910895DF93CF9300D0CDB7DEB76A
:100C60009A8389830AC0E981FA8180810E94020601
:100C700089819A8101969A838983E981FA818081A9
:100C8000882389F70F900F90CF91DF910895DF931C
:100C9000CF9300D0CDB7DEB79A8389830E941C061C
:100CA000E981FA8180818823C9F70F900F90CF9155
:100CB000DF910895DF93CF9300D000D0CDB7DEB79A
:100CC0008A8381E08983A3E5B0E0E3E5F0E08081F9
:100CD0008F7B8C93A3E5B0E0E3E5F0E08081877F34
:100CE0008C938A81282F30E03C832B838B819C81DD
:100CF0008230910529F12B813C812330310534F478
:100D00008B819C818130910561F047C02B813C81B2
:100D10002330310521F18B819C818430910571F163
:100D20003CC0A3E5B0E0E3E5F0E080818F7E8C93EA
:100D3000A3E5B0E0E3E5F0E080818F7D8C932EC0E9
:100D4000A3E5B0E0E3E5F0E0808180618C93A3E56A
:100D5000B0E0E3E5F0E080818F7D8C931FC0A3E5D8
:100D6000B0E0E3E5F0E080818F7E8C93A3E5B0E016
:100D7000E3E5F0E0808180628C9310C0A3E5B0E0F1
:100D8000E3E5F0E0808180618C93A3E5B0E0E3E5EA
:100D9000F0E0808180628C9301C01982A3E5B0E00D
:100DA000E3E5F0E0808180688C9381E063E041E0DE
:100DB0000E94181C89810F900F900F900F90CF9177
:100DC000DF910895DF93CF9300D000D00F92CDB77D
:100DD000DEB78A836B8381E08983A3E5B0E0E3E536
:100DE000F0E080818F7B8C93A3E5B0E0E3E5F0E059
:100DF000808188608C938B81282F30E03D832C8309
:100E00008C819D818230910529F12C813D81233097
:100E1000310534F48C819D818130910561F047C0AA
:100E20002C813D812330310521F18C819D818430DD
:100E3000910571F13CC0A3E5B0E0E3E5F0E080810D
:100E40008F7E8C93A3E5B0E0E3E5F0E080818F7DB9
:100E50008C932EC0A3E5B0E0E3E5F0E080818061F3
:100E60008C93A3E5B0E0E3E5F0E080818F7D8C9387
:100E70001FC0A3E5B0E0E3E5F0E080818F7E8C93B6
:100E8000A3E5B0E0E3E5F0E0808180628C9310C0E0
:100E9000A3E5B0E0E3E5F0E0808180618C93A3E519
:100EA000B0E0E3E5F0E0808180628C9301C01982BC
:100EB000ECE5F0E08A818083A3E5B0E0E3E5F0E0D3
:100EC000808180688C9381E063E041E00E94181C7F
:100ED00089810F900F900F900F900F90CF91DF911D
:100EE0000895DF93CF9300D000D00F92CDB7DEB737
:100EF0008A836B8381E08983A3E5B0E0E3E5F0E0DA
:100F0000808180648C93A3E5B0E0E3E5F0E080812C
:100F100088608C938B81282F30E03D832C838C81DB
:100F20009D8183309105C9F02C813D8124303105AC
:100F300019F18C819D818130910569F5A3E5B0E0BF
:100F4000E3E5F0E080818F7E8C93A3E5B0E0E3E5FC
:100F5000F0E080818F7D8C931FC0A3E5B0E0E3E5D6
:100F6000F0E080818F7E8C93A3E5B0E0E3E5F0E0D4
:100F7000808180628C9310C0A3E5B0E0E3E5F0E0EF
:100F8000808180618C93A3E5B0E0E3E5F0E08081AF
:100F900080628C9301C01982ECE5F0E08A81808345
:100FA000A3E5B0E0E3E5F0E080818F778C9381E00A
:100FB00063E041E00E94181C89810F900F900F9010
:100FC0000F900F90CF91DF910895DF93CF9300D0D2
:100FD00000D00F92CDB7DEB78A836B8381E089831F
:100FE000A3E5B0E0E3E5F0E0808180648C93A3E5C5
:100FF000B0E0E3E5F0E08081877F8C938B81282F40
:1010000030E03D832C838C819D8183309105C9F034
:101010002C813D812430310519F18C819D818130F5
:10102000910569F5A3E5B0E0E3E5F0E080818F7E0E
:101030008C93A3E5B0E0E3E5F0E080818F7D8C93B5
:101040001FC0A3E5B0E0E3E5F0E080818F7E8C93E4
:10105000A3E5B0E0E3E5F0E0808180628C9310C00E
:10106000A3E5B0E0E3E5F0E0808180618C93A3E547
:10107000B0E0E3E5F0E0808180628C9301C01982EA
:10108000ECE5F0E08A818083A3E5B0E0E3E5F0E001
:1010900080818F778C9381E063E041E00E94181C8F
:1010A00089810F900F900F900F900F90CF91DF914B
:1010B0000895DF93CF9300D00F92CDB7DEB79B8317
:1010C0008A8381E089838A819B81009711F4198248
:1010D00006C0E2E5F0E08081EA81FB8180838981BE
:1010E0000F900F900F90CF91DF910895DF93CF93E2
:1010F00000D0CDB7DEB78A8381E089838A818630CC
:1011000080F4A3E5B0E0E3E5F0E08081887F8C9394
:10111000A3E5B0E0E3E5F0E090818A81892B8C9330
:1011200001C0198289810F900F90CF91DF910895AE
:10113000DF93CF930F92CDB7DEB781E08983A3E52C
:10114000B0E0E3E5F0E08081887F8C93A3E5B0E038
:10115000E3E5F0E080818C9389810F90CF91DF915E
:101160000895DF93CF93CDB7DEB727970FB6F894E6
:10117000DEBF0FBECDBF8A836B8381E08983AFE47E
:10118000B0E0EFE4F0E080818E7F8C93AFE4B0E0DC
:10119000EFE4F0E080818D7F8C93AEE4B0E0EEE48C
:1011A000F0E08081877F8C93AEE4B0E0EEE4F0E085
:1011B00080818F7E8C938A81282F30E03F832E831D
:1011C0008E819F818230910529F12E813F812330CC
:1011D000310534F48E819F818130910561F047C0E3
:1011E0002E813F812330310521F18E819F81843012
:1011F000910571F13CC0AFE4B0E0EFE4F0E0808134
:101200008F7B8C93AFE4B0E0EFE4F0E080818F77E8
:101210008C932EC0AFE4B0E0EFE4F0E08081806416
:101220008C93AFE4B0E0EFE4F0E080818F778C93B3
:101230001FC0AFE4B0E0EFE4F0E080818F7B8C93DF
:10124000AFE4B0E0EFE4F0E0808180688C9310C000
:10125000AFE4B0E0EFE4F0E0808180648C93AFE431
:10126000B0E0EFE4F0E0808180688C9301C01982E7
:101270008B81282F30E03D832C838C819D818230AF
:10128000910529F12C813D812330310534F48C8185
:101290009D818130910561F047C02C813D812330D3
:1012A000310521F18C819D818430910571F13CC023
:1012B000AFE4B0E0EFE4F0E080818F7E8C93AFE4A8
:1012C000B0E0EFE4F0E080818F7D8C932EC0AFE43E
:1012D000B0E0EFE4F0E0808180618C93AFE4B0E0B7
:1012E000EFE4F0E080818F7D8C931FC0AFE4B0E02D
:1012F000EFE4F0E080818F7E8C93AFE4B0E0EFE428
:10130000F0E0808180628C9310C0AFE4B0E0EFE445
:10131000F0E0808180618C93AFE4B0E0EFE4F0E036
:10132000808180628C9301C01982AFE4B0E0EFE469
:10133000F0E0808188608C93AFE4B0E0EFE4F0E00F
:10134000808184608C9383E064E041E00E94181CFB
:1013500083E065E041E00E94181C898127960FB662
:10136000F894DEBF0FBECDBFCF91DF910895DF931C
:10137000CF9300D000D000D0CDB7DEB78A837C8376
:101380006B8381E08983AFE4B0E0EFE4F0E080813B
:101390008E7F8C93AFE4B0E0EFE4F0E080818D7F4E
:1013A0008C93AEE4B0E0EEE4F0E0808188608C9352
:1013B000AEE4B0E0EEE4F0E080818F7E8C938A8131
:1013C000282F30E03E832D838D819E8182309105D0
:1013D00029F12D813E812330310534F48D819E81A8
:1013E0008130910561F047C02D813E812330310568
:1013F00021F18D819E818430910571F13CC0AFE473
:10140000B0E0EFE4F0E080818F7B8C93AFE4B0E05C
:10141000EFE4F0E080818F778C932EC0AFE4B0E0F2
:10142000EFE4F0E0808180648C93AFE4B0E0EFE41F
:10143000F0E080818F778C931FC0AFE4B0E0EFE4E1
:10144000F0E080818F7B8C93AFE4B0E0EFE4F0E0DC
:10145000808180688C9310C0AFE4B0E0EFE4F0E0EE
:10146000808180648C93AFE4B0E0EFE4F0E08081B1
:1014700080688C9301C01982EAE4F0E08B819C8142
:1014800091838083AFE4B0E0EFE4F0E08081886096
:101490008C9383E065E041E00E94181C89812696C8
:1014A0000FB6F894DEBF0FBECDBFCF91DF91089588
:1014B0000F931F93DF93CF93CDB7DEB72D970FB662
:1014C000F894DEBF0FBECDBF8A836B835D834C83F0
:1014D0003F832E831987088781E08983AFE4B0E0DA
:1014E000EFE4F0E080818E7F8C93AFE4B0E0EFE436
:1014F000F0E080818D7F8C93AEE4B0E0EEE4F0E02C
:10150000808188608C93AEE4B0E0EEE4F0E080810E
:1015100080618C938A81282F30E03D872C878C85D1
:101520009D858230910529F12C853D85233031053B
:1015300034F48C859D858130910561F047C02C8500
:101540003D852330310521F18C859D8584309105C1
:1015500071F13CC0AFE4B0E0EFE4F0E080818F7B5C
:101560008C93AFE4B0E0EFE4F0E080818F778C9370
:101570002EC0AFE4B0E0EFE4F0E0808180648C93B3
:10158000AFE4B0E0EFE4F0E080818F778C931FC090
:10159000AFE4B0E0EFE4F0E080818F7B8C93AFE4C8
:1015A000B0E0EFE4F0E0808180688C9310C0AFE49D
:1015B000B0E0EFE4F0E0808180648C93AFE4B0E0D1
:1015C000EFE4F0E0808180688C9301C019828B8108
:1015D000282F30E03B872A878A859B8582309105BA
:1015E00029F12A853B852330310534F48A859B8592
:1015F0008130910561F047C02A853B852330310554
:1016000021F18A859B858430910571F13CC0AFE45E
:10161000B0E0EFE4F0E080818F7E8C93AFE4B0E047
:10162000EFE4F0E080818F7D8C932EC0AFE4B0E0DA
:10163000EFE4F0E0808180618C93AFE4B0E0EFE410
:10164000F0E080818F7D8C931FC0AFE4B0E0EFE4C9
:10165000F0E080818F7E8C93AFE4B0E0EFE4F0E0C7
:10166000808180628C9310C0AFE4B0E0EFE4F0E0E2
:10167000808180618C93AFE4B0E0EFE4F0E08081A2
:1016800080628C9301C01982E6E4F0E08885998538
:1016900091838083EAE4F0E08C819D819183808353
:1016A000E8E4F0E08E819F8191838083AFE4B0E035
:1016B000EFE4F0E0808188608C93AFE4B0E0EFE489
:1016C000F0E0808184608C9383E064E041E00E94DC
:1016D000181C83E065E041E00E94181C89812D966A
:1016E0000FB6F894DEBF0FBECDBFCF91DF911F9133
:1016F0000F910895DF93CF93CDB7DEB729970FB63B
:10170000F894DEBF0FBECDBF8A836B834C832D83DD
:1017100081E08983AFE4B0E0EFE4F0E080818160B4
:101720008C93AFE4B0E0EFE4F0E080818D7F8C93A8
:10173000AEE4B0E0EEE4F0E0808188608C93AEE44B
:10174000B0E0EEE4F0E080818F7E8C938C81282FD6
:1017500030E039872887888599858230910529F17D
:10176000288539852330310534F488859985813081
:10177000910561F047C0288539852330310521F175
:10178000888599858430910571F13CC0AFE4B0E063
:10179000EFE4F0E080818F7B8C93AFE4B0E0EFE486
:1017A000F0E080818F778C932EC0AFE4B0E0EFE45F
:1017B000F0E0808180648C93AFE4B0E0EFE4F0E08F
:1017C00080818F778C931FC0AFE4B0E0EFE4F0E04E
:1017D00080818F7B8C93AFE4B0E0EFE4F0E0808118
:1017E00080688C9310C0AFE4B0E0EFE4F0E080815B
:1017F00080648C93AFE4B0E0EFE4F0E08081806837
:101800008C9301C019828D81282F30E03F832E8375
:101810008E819F818230910529F12E813F81233075
:10182000310534F48E819F818130910561F047C08C
:101830002E813F812330310521F18E819F818430BB
:10184000910571F13CC0AFE4B0E0EFE4F0E08081DD
:101850008F7E8C93AFE4B0E0EFE4F0E080818F7D89
:101860008C932EC0AFE4B0E0EFE4F0E080818061C3
:101870008C93AFE4B0E0EFE4F0E080818F7D8C9357
:101880001FC0AFE4B0E0EFE4F0E080818F7E8C9386
:10189000AFE4B0E0EFE4F0E0808180628C9310C0B0
:1018A000AFE4B0E0EFE4F0E0808180618C93AFE4DE
:1018B000B0E0EFE4F0E0808180628C9301C0198297
:1018C000EAE4F0E08A81882F90E091838083E8E465
:1018D000F0E08B81882F90E091838083AFE4B0E0CB
:1018E000EFE4F0E08081877F8C93AFE4B0E0EFE439
:1018F000F0E080818B7F8C9383E064E041E00E9484
:10190000181C83E065E041E00E94181C898129963B
:101910000FB6F894DEBF0FBECDBFCF91DF91089513
:10192000DF93CF93CDB7DEB72B970FB6F894DEBF1A
:101930000FBECDBF9B838A837D836C834E832F83B1
:1019400081E08983AFE4B0E0EFE4F0E080818E7F56
:101950008C93AFE4B0E0EFE4F0E0808182608C93A0
:10196000AEE4B0E0EEE4F0E0808188608C93AEE419
:10197000B0E0EEE4F0E080818F7E8C938E81282FA2
:1019800030E03B872A878A859B858230910529F143
:101990002A853B852330310534F48A859B85813047
:1019A000910561F047C02A853B852330310521F13F
:1019B0008A859B858430910571F13CC0AFE4B0E02D
:1019C000EFE4F0E080818F7B8C93AFE4B0E0EFE454
:1019D000F0E080818F778C932EC0AFE4B0E0EFE42D
:1019E000F0E0808180648C93AFE4B0E0EFE4F0E05D
:1019F00080818F778C931FC0AFE4B0E0EFE4F0E01C
:101A000080818F7B8C93AFE4B0E0EFE4F0E08081E5
:101A100080688C9310C0AFE4B0E0EFE4F0E0808128
:101A200080648C93AFE4B0E0EFE4F0E08081806804
:101A30008C9301C019828F81282F30E03987288745
:101A4000888599858230910529F12885398523304B
:101A5000310534F4888599858130910561F047C05E
:101A6000288539852330310521F188859985843091
:101A7000910571F13CC0AFE4B0E0EFE4F0E08081AB
:101A80008F7E8C93AFE4B0E0EFE4F0E080818F7D57
:101A90008C932EC0AFE4B0E0EFE4F0E08081806191
:101AA0008C93AFE4B0E0EFE4F0E080818F7D8C9325
:101AB0001FC0AFE4B0E0EFE4F0E080818F7E8C9354
:101AC000AFE4B0E0EFE4F0E0808180628C9310C07E
:101AD000AFE4B0E0EFE4F0E0808180618C93AFE4AC
:101AE000B0E0EFE4F0E0808180628C9301C0198265
:101AF0008A819B8122E08030920798F48C819D81BD
:101B000032E08030930768F4EAE4F0E08A819B8158
:101B100091838083E8E4F0E08C819D8191838083D0
:101B200001C01982AFE4B0E0EFE4F0E08081877F8C
:101B30008C93AFE4B0E0EFE4F0E080818B7F8C9396
:101B400083E064E041E00E94181C83E065E041E02E
:101B50000E94181C89812B960FB6F894DEBF0FBE29
:101B6000CDBFCF91DF910895DF93CF93CDB7DEB78F
:101B70002B970FB6F894DEBF0FBECDBF9B838A8331
:101B80007D836C834E832F8381E08983AFE4B0E053
:101B9000EFE4F0E0808181608C93AFE4B0E0EFE4AB
:101BA000F0E0808182608C93AEE4B0E0EEE4F0E09F
:101BB000808188608C93AEE4B0E0EEE4F0E0808158
:101BC0008F7E8C938E81282F30E03B872A878A85F1
:101BD0009B858230910529F12A853B85233031058B
:101BE00034F48A859B858130910561F047C02A8550
:101BF0003B852330310521F18A859B858430910511
:101C000071F13CC0AFE4B0E0EFE4F0E080818F7BA5
:101C10008C93AFE4B0E0EFE4F0E080818F778C93B9
:101C20002EC0AFE4B0E0EFE4F0E0808180648C93FC
:101C3000AFE4B0E0EFE4F0E080818F778C931FC0D9
:101C4000AFE4B0E0EFE4F0E080818F7B8C93AFE411
:101C5000B0E0EFE4F0E0808180688C9310C0AFE4E6
:101C6000B0E0EFE4F0E0808180648C93AFE4B0E01A
:101C7000EFE4F0E0808180688C9301C019828F814D
:101C8000282F30E03987288788859985823091050B
:101C900029F1288539852330310534F488859985E3
:101CA0008130910561F047C02885398523303105A1
:101CB00021F1888599858430910571F13CC0AFE4AC
:101CC000B0E0EFE4F0E080818F7E8C93AFE4B0E091
:101CD000EFE4F0E080818F7D8C932EC0AFE4B0E024
:101CE000EFE4F0E0808180618C93AFE4B0E0EFE45A
:101CF000F0E080818F7D8C931FC0AFE4B0E0EFE413
:101D0000F0E080818F7E8C93AFE4B0E0EFE4F0E010
:101D1000808180628C9310C0AFE4B0E0EFE4F0E02B
:101D2000808180618C93AFE4B0E0EFE4F0E08081EB
:101D300080628C9301C019828A819B8124E080306B
:101D4000920798F48C819D8134E08030930768F489
:101D5000EAE4F0E08A819B8191838083E8E4F0E00B
:101D60008C819D819183808301C01982AFE4B0E0B2
:101D7000EFE4F0E08081877F8C93AFE4B0E0EFE4A4
:101D8000F0E080818B7F8C9383E064E041E00E94EF
:101D9000181C83E065E041E00E94181C89812B96A5
:101DA0000FB6F894DEBF0FBECDBFCF91DF9108957F
:101DB0000F93DF93CF93CDB7DEB72D970FB6F8947F
:101DC000DEBF0FBECDBF9B838A837D836C835F8321
:101DD0004E832887098781E08983AFE4B0E0EFE490
:101DE000F0E080818E7F8C93AFE4B0E0EFE4F0E030
:101DF000808182608C93AEE4B0E0EEE4F0E080811C
:101E000088608C93AEE4B0E0EEE4F0E08081806125
:101E10008C938885282F30E03D872C878C859D8585
:101E20008230910529F12C853D852330310534F42C
:101E30008C859D858130910561F047C02C853D855D
:101E40002330310521F18C859D858430910571F118
:101E50003CC0AFE4B0E0EFE4F0E080818F7B8C9396
:101E6000AFE4B0E0EFE4F0E080818F778C932EC098
:101E7000AFE4B0E0EFE4F0E0808180648C93AFE405
:101E8000B0E0EFE4F0E080818F778C931FC0AFE487
:101E9000B0E0EFE4F0E080818F7B8C93AFE4B0E0C2
:101EA000EFE4F0E0808180688C9310C0AFE4B0E094
:101EB000EFE4F0E0808180648C93AFE4B0E0EFE485
:101EC000F0E0808180688C9301C019828985282F79
:101ED00030E03B872A878A859B858230910529F1EE
:101EE0002A853B852330310534F48A859B858130F2
:101EF000910561F047C02A853B852330310521F1EA
:101F00008A859B858430910571F13CC0AFE4B0E0D7
:101F1000EFE4F0E080818F7E8C93AFE4B0E0EFE4FB
:101F2000F0E080818F7D8C932EC0AFE4B0E0EFE4D1
:101F3000F0E0808180618C93AFE4B0E0EFE4F0E00A
:101F400080818F7D8C931FC0AFE4B0E0EFE4F0E0C0
:101F500080818F7E8C93AFE4B0E0EFE4F0E080818D
:101F600080628C9310C0AFE4B0E0EFE4F0E08081D9
:101F700080618C93AFE4B0E0EFE4F0E080818062B8
:101F80008C9301C01982E6E4F0E08E819F819183F9
:101F900080832A813B818E819F8182179307A0F0E5
:101FA0002C813D818E819F818217930768F0EAE43E
:101FB000F0E08A819B8191838083E8E4F0E08C816A
:101FC0009D819183808301C0198283E064E041E0B8
:101FD0000E94181C83E065E041E00E94181C898182
:101FE0002D960FB6F894DEBF0FBECDBFCF91DF9117
:101FF0000F910895DF93CF9300D000D000D0CDB7DC
:10200000DEB79B838A836C8381E08983AFE4B0E091
:10201000EFE4F0E0808181608C93AFE4B0E0EFE426
:10202000F0E0808182608C93AEE4B0E0EEE4F0E01A
:10203000808188608C93AEE4B0E0EEE4F0E08081D3
:1020400080618C938C81282F30E03E832D838D819D
:102050009E818230910529F12D813E812330310509
:1020600034F48D819E818130910561F047C02D81CE
:102070003E812330310521F18D819E81843091058F
:1020800071F13CC0AFE4B0E0EFE4F0E080818F7B21
:102090008C93AFE4B0E0EFE4F0E080818F778C9335
:1020A0002EC0AFE4B0E0EFE4F0E0808180648C9378
:1020B000AFE4B0E0EFE4F0E080818F778C931FC055
:1020C000AFE4B0E0EFE4F0E080818F7B8C93AFE48D
:1020D000B0E0EFE4F0E0808180688C9310C0AFE462
:1020E000B0E0EFE4F0E0808180648C93AFE4B0E096
:1020F000EFE4F0E0808180688C9301C01982EAE40B
:10210000F0E08A819B8191838083AFE4B0E0EFE4CB
:10211000F0E08081877F8C9383E065E041E00E945E
:10212000181C898126960FB6F894DEBF0FBECDBF6E
:10213000CF91DF910895DF93CF93CDB7DEB7299785
:102140000FB6F894DEBF0FBECDBF8A836B834C837E
:102150002D8381E08983AFE4B0E0EFE4F0E080819B
:1021600081608C93AFE4B0E0EFE4F0E080818D7F9C
:102170008C93AEE4B0E0EEE4F0E08081877F8C9356
:10218000AEE4B0E0EEE4F0E080818F7E8C938C8151
:10219000282F30E0398728878885998582309105F6
:1021A00029F1288539852330310534F488859985CE
:1021B0008130910561F047C028853985233031058C
:1021C00021F1888599858430910571F13CC0AFE497
:1021D000B0E0EFE4F0E080818F7B8C93AFE4B0E07F
:1021E000EFE4F0E080818F778C932EC0AFE4B0E015
:1021F000EFE4F0E0808180648C93AFE4B0E0EFE442
:10220000F0E080818F778C931FC0AFE4B0E0EFE403
:10221000F0E080818F7B8C93AFE4B0E0EFE4F0E0FE
:10222000808180688C9310C0AFE4B0E0EFE4F0E010
:10223000808180648C93AFE4B0E0EFE4F0E08081D3
:1022400080688C9301C019828D81282F30E03F83F4
:102250002E838E819F818230910529F12E813F81CD
:102260002330310534F48E819F818130910561F0F6
:1022700047C02E813F812330310521F18E819F811E
:102280008430910571F13CC0AFE4B0E0EFE4F0E0E0
:1022900080818F7E8C93AFE4B0E0EFE4F0E080814A
:1022A0008F7D8C932EC0AFE4B0E0EFE4F0E080814E
:1022B00080618C93AFE4B0E0EFE4F0E080818F7D4B
:1022C0008C931FC0AFE4B0E0EFE4F0E080818F7E3C
:1022D0008C93AFE4B0E0EFE4F0E0808180628C9317
:1022E00010C0AFE4B0E0EFE4F0E0808180618C9357
:1022F000AFE4B0E0EFE4F0E0808180628C9301C055
:102300001982EAE4F0E08A81882F90E0918380834B
:10231000E8E4F0E08B81882F90E091838083AFE444
:10232000B0E0EFE4F0E08081877F8C93AFE4B0E031
:10233000EFE4F0E080818B7F8C9383E064E041E008
:102340000E94181C83E065E041E00E94181C89810E
:1023500029960FB6F894DEBF0FBECDBFCF91DF91A7
:102360000895DF93CF93CDB7DEB72B970FB6F894D0
:10237000DEBF0FBECDBF9B838A837D836C834E837C
:102380002F8381E08983AFE4B0E0EFE4F0E0808167
:102390008E7F8C93AFE4B0E0EFE4F0E08081826068
:1023A0008C93AEE4B0E0EEE4F0E08081877F8C9324
:1023B000AEE4B0E0EEE4F0E080818F7E8C938E811D
:1023C000282F30E03B872A878A859B8582309105BC
:1023D00029F12A853B852330310534F48A859B8594
:1023E0008130910561F047C02A853B852330310556
:1023F00021F18A859B858430910571F13CC0AFE461
:10240000B0E0EFE4F0E080818F7B8C93AFE4B0E04C
:10241000EFE4F0E080818F778C932EC0AFE4B0E0E2
:10242000EFE4F0E0808180648C93AFE4B0E0EFE40F
:10243000F0E080818F778C931FC0AFE4B0E0EFE4D1
:10244000F0E080818F7B8C93AFE4B0E0EFE4F0E0CC
:10245000808180688C9310C0AFE4B0E0EFE4F0E0DE
:10246000808180648C93AFE4B0E0EFE4F0E08081A1
:1024700080688C9301C019828F81282F30E03987C2
:102480002887888599858230910529F128853985A5
:102490002330310534F4888599858130910561F0C8
:1024A00047C0288539852330310521F188859985F4
:1024B0008430910571F13CC0AFE4B0E0EFE4F0E0AE
:1024C00080818F7E8C93AFE4B0E0EFE4F0E0808118
:1024D0008F7D8C932EC0AFE4B0E0EFE4F0E080811C
:1024E00080618C93AFE4B0E0EFE4F0E080818F7D19
:1024F0008C931FC0AFE4B0E0EFE4F0E080818F7E0A
:102500008C93AFE4B0E0EFE4F0E0808180628C93E4
:1025100010C0AFE4B0E0EFE4F0E0808180618C9324
:10252000AFE4B0E0EFE4F0E0808180628C9301C022
:1025300019828A819B8122E08030920798F48C81F5
:102540009D8132E08030930768F4EAE4F0E08A810C
:102550009B8191838083E8E4F0E08C819D8191836D
:10256000808301C01982AFE4B0E0EFE4F0E0808145
:10257000877F8C93AFE4B0E0EFE4F0E080818B7F65
:102580008C9383E064E041E00E94181C83E065E0E6
:1025900041E00E94181C89812B960FB6F894DEBF8B
:1025A0000FBECDBFCF91DF910895DF93CF93CDB70D
:1025B000DEB72B970FB6F894DEBF0FBECDBF9B835F
:1025C0008A837D836C834E832F8381E08983AFE48C
:1025D000B0E0EFE4F0E0808181608C93AFE4B0E0A4
:1025E000EFE4F0E0808182608C93AEE4B0E0EEE452
:1025F000F0E08081877F8C93AEE4B0E0EEE4F0E021
:1026000080818F7E8C938E81282F30E03B872A87B4
:102610008A859B858230910529F12A853B85233067
:10262000310534F48A859B858130910561F047C07E
:102630002A853B852330310521F18A859B858430AD
:10264000910571F13CC0AFE4B0E0EFE4F0E08081CF
:102650008F7B8C93AFE4B0E0EFE4F0E080818F7784
:102660008C932EC0AFE4B0E0EFE4F0E080818064B2
:102670008C93AFE4B0E0EFE4F0E080818F778C934F
:102680001FC0AFE4B0E0EFE4F0E080818F7B8C937B
:10269000AFE4B0E0EFE4F0E0808180688C9310C09C
:1026A000AFE4B0E0EFE4F0E0808180648C93AFE4CD
:1026B000B0E0EFE4F0E0808180688C9301C0198283
:1026C0008F81282F30E03987288788859985823047
:1026D000910529F1288539852330310534F4888521
:1026E00099858130910561F047C02885398523306F
:1026F000310521F1888599858430910571F13CC0BF
:10270000AFE4B0E0EFE4F0E080818F7E8C93AFE443
:10271000B0E0EFE4F0E080818F7D8C932EC0AFE4D9
:10272000B0E0EFE4F0E0808180618C93AFE4B0E052
:10273000EFE4F0E080818F7D8C931FC0AFE4B0E0C8
:10274000EFE4F0E080818F7E8C93AFE4B0E0EFE4C3
:10275000F0E0808180628C9310C0AFE4B0E0EFE4E1
:10276000F0E0808180618C93AFE4B0E0EFE4F0E0D2
:10277000808180628C9301C019828A819B8124E0D0
:102780008030920798F48C819D8134E080309307EB
:1027900068F4EAE4F0E08A819B8191838083E8E435
:1027A000F0E08C819D819183808301C01982AFE428
:1027B000B0E0EFE4F0E08081877F8C93AFE4B0E09D
:1027C000EFE4F0E080818B7F8C9383E064E041E074
:1027D0000E94181C83E065E041E00E94181C89817A
:1027E0002B960FB6F894DEBF0FBECDBFCF91DF9111
:1027F00008950F931F93DF93CF93CDB7DEB72D9737
:102800000FB6F894DEBF0FBECDBF8A836B835D83A6
:102810004C833F832E831987088781E08983AFE447
:10282000B0E0EFE4F0E080818E7F8C93AFE4B0E025
:10283000EFE4F0E0808182608C93AEE4B0E0EEE4FF
:10284000F0E08081877F8C93AEE4B0E0EEE4F0E0CE
:10285000808180618C938A81282F30E03D872C878E
:102860008C859D858230910529F12C853D8523300D
:10287000310534F48C859D858130910561F047C028
:102880002C853D852330310521F18C859D85843053
:10289000910571F13CC0AFE4B0E0EFE4F0E080817D
:1028A0008F7B8C93AFE4B0E0EFE4F0E080818F7732
:1028B0008C932EC0AFE4B0E0EFE4F0E08081806460
:1028C0008C93AFE4B0E0EFE4F0E080818F778C93FD
:1028D0001FC0AFE4B0E0EFE4F0E080818F7B8C9329
:1028E000AFE4B0E0EFE4F0E0808180688C9310C04A
:1028F000AFE4B0E0EFE4F0E0808180648C93AFE47B
:10290000B0E0EFE4F0E0808180688C9301C0198230
:102910008B81282F30E03B872A878A859B858230F0
:10292000910529F12A853B852330310534F48A85C8
:102930009B858130910561F047C02A853B85233016
:10294000310521F18A859B858430910571F13CC068
:10295000AFE4B0E0EFE4F0E080818F7E8C93AFE4F1
:10296000B0E0EFE4F0E080818F7D8C932EC0AFE487
:10297000B0E0EFE4F0E0808180618C93AFE4B0E000
:10298000EFE4F0E080818F7D8C931FC0AFE4B0E076
:10299000EFE4F0E080818F7E8C93AFE4B0E0EFE471
:1029A000F0E0808180628C9310C0AFE4B0E0EFE48F
:1029B000F0E0808180618C93AFE4B0E0EFE4F0E080
:1029C000808180628C9301C01982E6E4F0E0888502
:1029D0009985918380832C813D8188859985821793
:1029E0009307A0F02E813F818885998582179307F0
:1029F00068F0EAE4F0E08C819D8191838083E8E4D3
:102A0000F0E08E819F819183808301C01982AFE4C1
:102A1000B0E0EFE4F0E08081877F8C93AFE4B0E03A
:102A2000EFE4F0E080818B7F8C9383E064E041E011
:102A30000E94181C83E065E041E00E94181C898117
:102A40002D960FB6F894DEBF0FBECDBFCF91DF91AC
:102A50001F910F910895DF93CF9300D000D000D045
:102A6000CDB7DEB78A837C836B8381E08983AFE453
:102A7000B0E0EFE4F0E0808181608C93AFE4B0E0FF
:102A8000EFE4F0E0808182608C93AEE4B0E0EEE4AD
:102A9000F0E08081877F8C93AEE4B0E0EEE4F0E07C
:102AA000808180618C938A81282F30E03E832D8342
:102AB0008D819E818230910529F12D813E812330C7
:102AC000310534F48D819E818130910561F047C0DC
:102AD0002D813E812330310521F18D819E8184300D
:102AE000910571F13CC0AFE4B0E0EFE4F0E080812B
:102AF0008F7B8C93AFE4B0E0EFE4F0E080818F77E0
:102B00008C932EC0AFE4B0E0EFE4F0E0808180640D
:102B10008C93AFE4B0E0EFE4F0E080818F778C93AA
:102B20001FC0AFE4B0E0EFE4F0E080818F7B8C93D6
:102B3000AFE4B0E0EFE4F0E0808180688C9310C0F7
:102B4000AFE4B0E0EFE4F0E0808180648C93AFE428
:102B5000B0E0EFE4F0E0808180688C9301C01982DE
:102B6000EAE4F0E08A81882F90E091838083AFE4EB
:102B7000B0E0EFE4F0E08081877F8C9383E065E054
:102B800041E00E94181C898126960FB6F894DEBF9A
:102B90000FBECDBFCF91DF9108950F931F93DF93A9
:102BA000CF93CDB7DEB72D970FB6F894DEBF0FBE2B
:102BB000CDBF8A836B835D834C833F832E831987CC
:102BC000088781E08983AFE4B0E0EFE4F0E0808142
:102BD0008E7F8C93AFE4B0E0EFE4F0E080818D7FF6
:102BE0008C93AEE4B0E0EEE4F0E08081877F8C93DC
:102BF000AEE4B0E0EEE4F0E0808180618C938A8105
:102C0000282F30E03D872C878C859D85823091056B
:102C100029F12C853D852330310534F48C859D8543
:102C20008130910561F047C02C853D852330310509
:102C300021F18C859D858430910571F13CC0AFE414
:102C4000B0E0EFE4F0E080818F7B8C93AFE4B0E004
:102C5000EFE4F0E080818F778C932EC0AFE4B0E09A
:102C6000EFE4F0E0808180648C93AFE4B0E0EFE4C7
:102C7000F0E080818F778C931FC0AFE4B0E0EFE489
:102C8000F0E080818F7B8C93AFE4B0E0EFE4F0E084
:102C9000808180688C9310C0AFE4B0E0EFE4F0E096
:102CA000808180648C93AFE4B0E0EFE4F0E0808159
:102CB00080688C9301C019828B81282F30E03B877C
:102CC0002A878A859B858230910529F12A853B8553
:102CD0002330310534F48A859B858130910561F07C
:102CE00047C02A853B852330310521F18A859B85A4
:102CF0008430910571F13CC0AFE4B0E0EFE4F0E066
:102D000080818F7E8C93AFE4B0E0EFE4F0E08081CF
:102D10008F7D8C932EC0AFE4B0E0EFE4F0E08081D3
:102D200080618C93AFE4B0E0EFE4F0E080818F7DD0
:102D30008C931FC0AFE4B0E0EFE4F0E080818F7EC1
:102D40008C93AFE4B0E0EFE4F0E0808180628C939C
:102D500010C0AFE4B0E0EFE4F0E0808180618C93DC
:102D6000AFE4B0E0EFE4F0E0808180628C9301C0DA
:102D70001982E6E4F0E088859985918380832C812F
:102D80003D818885998582179307A0F02E813F8128
:102D9000888599858217930768F0EAE4F0E08C81D2
:102DA0009D8191838083E8E4F0E08E819F8191830F
:102DB000808301C01982AFE4B0E0EFE4F0E08081ED
:102DC000877F8C93AFE4B0E0EFE4F0E080818B7F0D
:102DD0008C9383E064E041E00E94181C83E065E08E
:102DE00041E00E94181C89812D960FB6F894DEBF31
:102DF0000FBECDBFCF91DF911F910F910895DF934B
:102E0000CF9300D000D000D0CDB7DEB78A837C83CB
:102E10006B8381E08983AFE4B0E0EFE4F0E0808190
:102E20008E7F8C93AFE4B0E0EFE4F0E080818260CD
:102E30008C93AEE4B0E0EEE4F0E0808188608C93A7
:102E4000AEE4B0E0EEE4F0E0808180618C938A81B2
:102E5000282F30E03E832D838D819E818230910525
:102E600029F12D813E812330310534F48D819E81FD
:102E70008130910561F047C02D813E8123303105BD
:102E800021F18D819E818430910571F13CC0AFE4C8
:102E9000B0E0EFE4F0E080818F7B8C93AFE4B0E0B2
:102EA000EFE4F0E080818F778C932EC0AFE4B0E048
:102EB000EFE4F0E0808180648C93AFE4B0E0EFE475
:102EC000F0E080818F778C931FC0AFE4B0E0EFE437
:102ED000F0E080818F7B8C93AFE4B0E0EFE4F0E032
:102EE000808180688C9310C0AFE4B0E0EFE4F0E044
:102EF000808180648C93AFE4B0E0EFE4F0E0808107
:102F000080688C9301C01982EAE4F0E08A81882FFE
:102F100090E091838083AFE4B0E0EFE4F0E0808163
:102F2000877F8C9383E065E041E00E94181C8981D3
:102F300026960FB6F894DEBF0FBECDBFCF91DF91BE
:102F40000895DF93CF9300D00F92CDB7DEB79B8368
:102F50008A8381E089838A819B81009711F4198299
:102F600008C0ECE4F0E080819181EA81FB819183EB
:102F7000808389810F900F900F90CF91DF910895FA
:102F8000DF93CF9300D0CDB7DEB78A8381E089830A
:102F90008A81863080F4AEE4B0E0EEE4F0E0808137
:102FA000887F8C93AEE4B0E0EEE4F0E090818A811B
:102FB000892B8C9301C0198289810F900F90CF913A
:102FC000DF910895DF93CF930F92CDB7DEB781E005
:102FD0008983AEE4B0E0EEE4F0E08081887F8C93FA
:102FE000AEE4B0E0EEE4F0E080818C9389810F9054
:102FF000CF91DF910895DF93CF9300D000D0CDB76C
:10300000DEB78A8381E08983A5E4B0E0E5E4F0E0FF
:1030100080818F7B8C93A5E4B0E0E5E4F0E08081D3
:10302000877F8C938A81282F30E03C832B838B8190
:103030009C818230910529F12B813C81233031051F
:1030400034F48B819C818130910561F047C02B81E4
:103050003C812330310521F18B819C8184309105A5
:1030600071F13CC0A5E4B0E0E5E4F0E080818F7E42
:103070008C93A5E4B0E0E5E4F0E080818F7D8C9353
:103080002EC0A5E4B0E0E5E4F0E0808180618C939F
:10309000A5E4B0E0E5E4F0E080818F7D8C931FC073
:1030A000A5E4B0E0E5E4F0E080818F7E8C93A5E4B8
:1030B000B0E0E5E4F0E0808180628C9310C0A5E48C
:1030C000B0E0E5E4F0E0808180618C93A5E4B0E0BD
:1030D000E5E4F0E0808180628C9301C01982A5E470
:1030E000B0E0E5E4F0E0808180688C9383E067E005
:1030F00041E00E94181C89810F900F900F900F9053
:10310000CF91DF910895DF93CF9300D000D00F923D
:10311000CDB7DEB78A836B8381E08983A5E4B0E015
:10312000E5E4F0E080818F7B8C93A5E4B0E0E5E4FA
:10313000F0E0808188608C938B81282F30E03D8384
:103140002C838C819D818230910529F12C813D81D8
:103150002330310534F48C819D818130910561F0FB
:1031600047C02C813D812330310521F18C819D8127
:103170008430910571F13CC0A5E4B0E0E5E4F0E0F5
:1031800080818F7E8C93A5E4B0E0E5E4F0E080815F
:103190008F7D8C932EC0A5E4B0E0E5E4F0E0808163
:1031A00080618C93A5E4B0E0E5E4F0E080818F7D60
:1031B0008C931FC0A5E4B0E0E5E4F0E080818F7E51
:1031C0008C93A5E4B0E0E5E4F0E0808180628C932C
:1031D00010C0A5E4B0E0E5E4F0E0808180618C936C
:1031E000A5E4B0E0E5E4F0E0808180628C9301C06A
:1031F0001982E3E4F0E08A818083A5E4B0E0E5E4AD
:10320000F0E0808180688C9383E067E041E00E9479
:10321000181C89810F900F900F900F900F90CF91F5
:10322000DF910895DF93CF9300D000D00F92CDB7F8
:10323000DEB78A836B8381E08983A5E4B0E0E5E4AF
:10324000F0E0808180648C93A5E4B0E0E5E4F0E0F8
:10325000808188608C938B81282F30E03D832C8384
:103260008C819D8183309105C9F02C813D81243072
:10327000310519F18C819D818130910569F5A5E4B5
:10328000B0E0E5E4F0E080818F7E8C93A5E4B0E0CF
:10329000E5E4F0E080818F7D8C931FC0A5E4B0E071
:1032A000E5E4F0E080818F7E8C93A5E4B0E0E5E476
:1032B000F0E0808180628C9310C0A5E4B0E0E5E48A
:1032C000F0E0808180618C93A5E4B0E0E5E4F0E07B
:1032D000808180628C9301C01982E3E4F0E08A81EE
:1032E0008083A5E4B0E0E5E4F0E080818F778C9303
:1032F00083E067E041E00E94181C89810F900F90E5
:103300000F900F900F90CF91DF910895DF93CF939F
:1033100000D000D00F92CDB7DEB78A836B8381E0F7
:103320008983A5E4B0E0E5E4F0E0808180648C93DB
:10333000A5E4B0E0E5E4F0E08081877F8C938B81A9
:10334000282F30E03D832C838C819D818330910533
:10335000C9F02C813D812430310519F18C819D818A
:103360008130910569F5A5E4B0E0E5E4F0E0808105
:103370008F7E8C93A5E4B0E0E5E4F0E080818F7D62
:103380008C931FC0A5E4B0E0E5E4F0E080818F7E7F
:103390008C93A5E4B0E0E5E4F0E0808180628C935A
:1033A00010C0A5E4B0E0E5E4F0E0808180618C939A
:1033B000A5E4B0E0E5E4F0E0808180628C9301C098
:1033C0001982E3E4F0E08A818083A5E4B0E0E5E4DB
:1033D000F0E080818F778C9383E067E041E00E948A
:1033E000181C89810F900F900F900F900F90CF9124
:1033F000DF910895DF93CF9300D00F92CDB7DEB762
:103400009B838A8381E089838A819B81009711F461
:10341000198206C0E4E4F0E08081EA81FB818083C8
:1034200089810F900F900F90CF91DF910895DF93D6
:10343000CF9300D0CDB7DEB78A8381E089838A81BC
:10344000863080F4A5E4B0E0E5E4F0E08081887F98
:103450008C93A5E4B0E0E5E4F0E090818A81892BCB
:103460008C9301C0198289810F900F90CF91DF91C9
:103470000895DF93CF930F92CDB7DEB781E08983B4
:10348000A5E4B0E0E5E4F0E08081887F8C93A5E4DA
:10349000B0E0E5E4F0E080818C9389810F90CF91DA
:1034A000DF910895DF93CF930F92CDB7DEB7898375
:1034B000A1E2B0E0E1E2F0E080818E7F8C93A1E2B6
:1034C000B0E0E1E2F0E080818D7F8C93A1E2B0E09A
:1034D000E1E2F0E0808187708C93E0E2F0E08EE33F
:1034E00080838981882329F0E2E2F0E08981880FD6
:1034F0008083A6E5B0E0E6E5F0E0808184608C930F
:103500000F90CF91DF910895DF93CF930F92CDB7B6
:10351000DEB78983E2E2F0E08981880F8083A6E547
:10352000B0E0E6E5F0E0808180648C93A6E5B0E051
:10353000E6E5F0E0808184608C930F90CF91DF917D
:103540000895DF93CF930F92CDB7DEB71982A6E52A
:10355000B0E0E6E5F0E0808180688C93A6E5B0E01D
:10356000E6E5F0E0808180628C93E6E5F0E0808122
:103570008823DCF7E1E2F0E08081882F90E0887F0B
:1035800090708830910511F081E0898389810F90D6
:10359000CF91DF910895DF93CF930F92CDB7DEB730
:1035A0001982A6E5B0E0E6E5F0E0808180628C93C8
:1035B000A6E5B0E0E6E5F0E0808180688C93E6E582
:1035C000F0E080818823DCF7E1E2F0E08081882F61
:1035D00090E0887F90708031910511F082E08983BE
:1035E00089810F90CF91DF910895DF93CF9300D021
:1035F000CDB7DEB78A831982E3E2F0E08A81880FD3
:103600008083A3E2B0E0E3E2F0E080818E7F8C93E0
:10361000A6E5B0E0E6E5F0E080818F7D8C93A6E53D
:10362000B0E0E6E5F0E0808180688C93E6E5F0E0CC
:1036300080818823DCF7E1E2F0E08081882F90E050
:10364000887F90708831910511F083E089838981AA
:103650000F900F90CF91DF910895DF93CF9300D01B
:10366000CDB7DEB78A831982E3E2F0E08A81880F62
:103670008083A3E2B0E0E3E2F0E0808181608C939C
:10368000A6E5B0E0E6E5F0E080818F7D8C93A6E5CD
:10369000B0E0E6E5F0E0808180688C93E6E5F0E05C
:1036A00080818823DCF7E1E2F0E08081882F90E0E0
:1036B000887F90708034910511F084E0898389813E
:1036C0000F900F90CF91DF910895DF93CF9300D0AB
:1036D000CDB7DEB78A831982E3E2F0E08A81808386
:1036E000A6E5B0E0E6E5F0E0808180688C93E6E551
:1036F000F0E080818823DCF7E1E2F0E08081882F30
:1037000090E0887F90708832910511F085E0898380
:1037100089810F900F90CF91DF910895DF93CF9320
:1037200000D00F92CDB7DEB79B838A831982A6E5BE
:10373000B0E0E6E5F0E0808180688C93E6E5F0E0BB
:1037400080818823DCF7E1E2F0E08081882F90E03F
:10375000887F90708835910519F086E0898306C0CE
:10376000E3E2F0E08081EA81FB81808389810F9030
:103770000F900F90CF91DF910895DF93CF93CDB746
:10378000DEB7A6E5B0E0E6E5F0E0808180618C93ED
:10379000A6E5B0E0E6E5F0E0808180688C93A6E5E0
:1037A000B0E0E6E5F0E0808184608C93CF91DF911A
:1037B0000895DF93CF93CDB7DEB7A6E5B0E0E6E599
:1037C000F0E080818F7B8C93CF91DF910895DF9320
:1037D000CF93CDB7DEB7A6E5B0E0E6E5F0E08081B7
:1037E00080648C93CF91DF910895DF93CF93CDB711
:1037F000DEB7EAE3F0E08EE08083E7E3F0E01082FA
:10380000E4E3F0E01082E1E3F0E08DE18083EBE3BC
:10381000F0E080EF8083E8E3F0E080EF8083E5E391
:10382000F0E01082E2E3F0E01082CF91DF910895A2
:10383000DF93CF93CDB7DEB728970FB6F894DEBFEE
:103840000FBECDBF8A836B834C8381E089838B81DC
:10385000883008F0F1C08C81813009F071C08A8114
:10386000282F30E038872F838F819885813091050C
:1038700049F12F813885223031052CF48F819885CC
:10388000009761F05BC02F8138852230310571F1DE
:103890008F81988583309105E9F150C0AAE3B0E0AB
:1038A000EAE3F0E08081482F8B81282F30E081E02F
:1038B00090E0022E02C0880F991F0A94E2F7842B31
:1038C0008C93BBC0A7E3B0E0E7E3F0E08081482F32
:1038D0008B81282F30E081E090E0022E02C0880F1B
:1038E000991F0A94E2F7842B8C93A7C0A4E3B0E05D
:1038F000E4E3F0E08081482F8B81282F30E081E0E5
:1039000090E0022E02C0880F991F0A94E2F7842BE0
:103910008C9393C0A1E3B0E0E1E3F0E08081482F15
:103920008B81282F30E081E090E0022E02C0880FCA
:10393000991F0A94E2F7842B8C937FC019827DC073
:103940008C81882309F076C08A81282F30E03E835D
:103950002D838D819E818130910559F12D813E818C
:10396000223031052CF48D819E81009769F060C072
:103970002D813E812230310589F18D819E818330F8
:10398000910509F440C054C0AAE3B0E0EAE3F0E0D6
:103990008081482F8B81282F30E081E090E0022E3B
:1039A00002C0880F991F0A94E2F7809584238C93B4
:1039B00044C0A7E3B0E0E7E3F0E08081482F8B81CB
:1039C000282F30E081E090E0022E02C0880F991F7E
:1039D0000A94E2F7809584238C932FC0A4E3B0E08F
:1039E000E4E3F0E08081482F8B81282F30E081E0F4
:1039F00090E0022E02C0880F991F0A94E2F780958A
:103A000084238C931AC0A1E3B0E0E1E3F0E080816D
:103A1000482F8B81282F30E081E090E0022E02C0F9
:103A2000880F991F0A94E2F7809584238C9305C030
:103A3000198203C0198201C01982898128960FB6A4
:103A4000F894DEBF0FBECDBFCF91DF910895DF9315
:103A5000CF93CDB7DEB728970FB6F894DEBF0FBE71
:103A6000CDBF8A836B834C8381E089838B818830CF
:103A700008F0F1C08C81813009F071C08A81282F53
:103A800030E038872F838F8198858130910549F107
:103A90002F813885223031052CF48F81988500974D
:103AA00061F05BC02F8138852230310571F18F8143
:103AB000988583309105E9F150C0ABE3B0E0EBE3CA
:103AC000F0E08081482F8B81282F30E081E090E06A
:103AD000022E02C0880F991F0A94E2F7842B8C9360
:103AE000BBC0A8E3B0E0E8E3F0E08081482F8B8121
:103AF000282F30E081E090E0022E02C0880F991F4D
:103B00000A94E2F7842B8C93A7C0A5E3B0E0E5E329
:103B1000F0E08081482F8B81282F30E081E090E019
:103B2000022E02C0880F991F0A94E2F7842B8C930F
:103B300093C0A2E3B0E0E2E3F0E08081482F8B8104
:103B4000282F30E081E090E0022E02C0880F991FFC
:103B50000A94E2F7842B8C937FC019827DC08C81FC
:103B6000882309F076C08A81282F30E03E832D8398
:103B70008D819E818130910559F12D813E812230C8
:103B800031052CF48D819E81009769F060C02D81F4
:103B90003E812230310589F18D819E8183309105EE
:103BA00009F440C054C0ABE3B0E0EBE3F0E0808147
:103BB000482F8B81282F30E081E090E0022E02C058
:103BC000880F991F0A94E2F7809584238C9344C050
:103BD000A8E3B0E0E8E3F0E08081482F8B81282F54
:103BE00030E081E090E0022E02C0880F991F0A9415
:103BF000E2F7809584238C932FC0A5E3B0E0E5E342
:103C0000F0E08081482F8B81282F30E081E090E028
:103C1000022E02C0880F991F0A94E2F78095842330
:103C20008C931AC0A2E3B0E0E2E3F0E08081482F79
:103C30008B81282F30E081E090E0022E02C0880FB7
:103C4000991F0A94E2F7809584238C9305C019820A
:103C500003C0198201C01982898128960FB6F89491
:103C6000DEBF0FBECDBFCF91DF910895DF93CF931D
:103C7000CDB7DEB727970FB6F894DEBF0FBECDBF26
:103C80008A836B835D834C8381E089838B81883059
:103C900008F078C08C819D81009709F473C08A81F7
:103CA000282F30E03F832E834E815F8141305105C4
:103CB00059F18E819F818230910534F42E813F81AC
:103CC0002115310569F05CC04E815F81423051059C
:103CD00079F18E819F818330910509F43DC050C0F8
:103CE000E9E3F0E08081282F30E08B81882F90E09D
:103CF000A90102C0559547958A95E2F7CA018170DE
:103D0000EC81FD8180833FC0E6E3F0E08081282FD5
:103D100030E08B81882F90E0A90102C0559547952E
:103D20008A95E2F7CA018170EC81FD8180832BC006
:103D3000E3E3F0E08081282F30E08B81882F90E052
:103D4000A90102C0559547958A95E2F7CA0181708D
:103D5000EC81FD81808317C0E0E3F0E08081282FB3
:103D600030E08B81882F90E0A90102C055954795DE
:103D70008A95E2F7CA018170EC81FD81808303C0DE
:103D8000198201C01982898127960FB6F894DEBF87
:103D90000FBECDBFCF91DF910895DF93CF9300D0B9
:103DA0000F92CDB7DEB78A836B8381E089838A81E6
:103DB0006B8140E00E94181C89838981813031F435
:103DC0008A816B8141E00E94271D898389810F9040
:103DD0000F900F90CF91DF910895DF93CF9300D094
:103DE00000D00F92CDB7DEB78A836B8381E08983E1
:103DF0008B81883008F071C08A81282F30E03D83A4
:103E00002C838C819D818130910549F12C813D81EC
:103E1000223031052CF48C819D81009761F05BC0CC
:103E20002C813D812230310571F18C819D8183305F
:103E30009105E9F150C0ABE3B0E0EBE3F0E0808145
:103E4000482F8B81282F30E081E090E0022E02C0C5
:103E5000880F991F0A94E2F784278C933FC0A8E348
:103E6000B0E0E8E3F0E08081482F8B81282F30E03C
:103E700081E090E0022E02C0880F991F0A94E2F7B9
:103E800084278C932BC0A5E3B0E0E5E3F0E08081CC
:103E9000482F8B81282F30E081E090E0022E02C075
:103EA000880F991F0A94E2F784278C9317C0A2E326
:103EB000B0E0E2E3F0E08081482F8B81282F30E0F2
:103EC00081E090E0022E02C0880F991F0A94E2F769
:103ED00084278C9303C0198201C0198289810F90B5
:103EE0000F900F900F900F90CF91DF910895DF9377
:103EF000CF9300D000D00F92CDB7DEB78A836B830B
:103F000081E089838B818F3F19F08B818823A1F514
:103F10008A81282F30E03D832C838C819D818130E4
:103F20009105D1F02C813D81223031052CF48C811A
:103F30009D81009761F01FC02C813D8122303105A9
:103F400081F08C819D818330910581F014C0EAE37A
:103F5000F0E08B81808310C0E7E3F0E08B81808309
:103F60000BC0E4E3F0E08B81808306C0E1E3F0E086
:103F70008B81808301C0198289810F900F900F90EF
:103F80000F900F90CF91DF910895DF93CF9300D0E2
:103F900000D00F92CDB7DEB78A836B8381E089832F
:103FA0008A81282F30E03D832C838C819D81813054
:103FB0009105D1F02C813D81223031052CF48C818A
:103FC0009D81009761F01FC02C813D812230310519
:103FD00081F08C819D818330910581F014C0EBE3E9
:103FE000F0E08B81808310C0E8E3F0E08B81808378
:103FF0000BC0E5E3F0E08B81808306C0E2E3F0E0F4
:104000008B81808301C0198289810F900F900F905E
:104010000F900F90CF91DF910895DF93CF9300D051
:1040200000D000D0CDB7DEB78A837C836B8381E07C
:1040300089838A81843008F040C08B819C810097FD
:10404000E1F18A81282F30E03E832D838D819E818E
:1040500081309105E1F02D813E81223031052CF433
:104060008D819E81009761F027C02D813E81223095
:104070003105A1F08D819E8183309105B1F01CC086
:10408000E9E3F0E08081EB81FC81808316C0E6E308
:10409000F0E08081EB81FC8180830FC0E3E3F0E0FE
:1040A0008081EB81FC81808308C0E0E3F0E08081C7
:1040B000EB81FC81808301C01982898126960FB62D
:1040C000F894DEBF0FBECDBFCF91DF910895DF938F
:1040D000CF9300D000D0CDB7DEB78A8381E089834B
:1040E0008A81282F30E03C832B838B819C81813017
:1040F0009105E9F02B813C81223031052CF48B8134
:104100009C81009761F02BC02B813C8122303105CE
:10411000B1F08B819C8183309105C9F020C0ABE365
:10412000B0E0EBE3F0E0808180958C9319C0A8E3C8
:10413000B0E0E8E3F0E0808180958C9311C0A5E3C6
:10414000B0E0E5E3F0E0808180958C9309C0A2E3C4
:10415000B0E0E2E3F0E0808180958C9301C01982A9
:1041600089810F900F900F900F90CF91DF9108955C
:10417000EF92FF920F931F93DF93CF93CDB7DEB7EC
:1041800060970FB6F894DEBF0FBECDBF9E838D83C0
:1041900078876F835A8749873C872B871E870D87CF
:1041A000F88AEF861C821B821A8219822B853C8535
:1041B00089859A85A901481B590B2F8138858D81E6
:1041C0009E81281B390BCA01B9010E94DE2ECB014A
:1041D0009C838B832B813C818F859889A901489F83
:1041E0009001499F300D589F300D11248D859E857B
:1041F000820F931F9A83898389819A8160960FB673
:10420000F894DEBF0FBECDBFCF91DF911F910F910C
:10421000FF90EF900895EF92FF920F931F93DF931B
:10422000CF9300D00F92CDB7DEB78B831A8219825D
:104230008B81E82FF0E080E090E064EB70E040EDEF
:1042400057E020EA3FE000ED17E07F010E94B82030
:104250009A83898389819A8129813A81B90140E4CD
:104260005CE923E003E00E94D80E82E00E94C017C0
:104270000F900F900F90CF91DF911F910F91FF90B2
:10428000EF900895DF93CF9300D00F92CDB7DEB7B4
:104290008A836B8381E089838A816B8141E00E94FC
:1042A000271D898389810F900F900F90CF91DF9107
:1042B0000895DF93CF9300D00F92CDB7DEB78A83F6
:1042C0006B8381E089838A816B8140E00E94271D96
:1042D000898389810F900F900F90CF91DF9108957E
:1042E000DF93CF9300D00F92CDB7DEB78A836B8375
:1042F00081E089838A816B810E94ED1E8983898197
:104300000F900F900F90CF91DF910895DF93CF938F
:10431000CDB7DEB780E065E040E00E94271D80E079
:1043200066E040E00E94271D81E06FEF0E94C51FFC
:1043300080E067E041E00E94271DCF91DF91089562
:10434000DF93CF93CDB7DEB781E060E041E00E941C
:10435000181C81E061E041E00E94181C81E062E0ED
:1043600041E00E94181C81E063E041E00E94181CBB
:1043700080E065E041E00E94181C80E066E041E0DA
:104380000E94181C80E067E041E00E94181CCF9159
:10439000DF910895DF93CF93CDB7DEB760970FB667
:1043A000F894DEBF0FBECDBF888B81E08F8780E0A1
:1043B00065E040E00E94271D8F8780E066E040E0D6
:1043C0000E94271D8F8781E068890E94C51F8F8703
:1043D00080E067E041E00E94271D8F8780E090E049
:1043E000A0E0B0E48B879C87AD87BE876B857C851A
:1043F0008D859E8520E030E04AE755E40E941F024B
:10440000DC01CB018F839887A987BA876F81788574
:1044100089859A8520E030E040E85FE30E947903D7
:1044200088232CF481E090E09E838D833FC06F81D0
:10443000788589859A8520E03FEF4FE757E40E9411
:10444000190318164CF56B857C858D859E8520E0BB
:1044500030E040E251E40E941F02DC01CB01BC01CC
:10446000CD010E944900DC01CB019E838D830FC0EA
:1044700080E991E09C838B838B819C810197F1F78C
:104480009C838B838D819E8101979E838D838D81FB
:104490009E81009769F714C06F81788589859A8518
:1044A0000E944900DC01CB019E838D838D819E811A
:1044B0009A83898389819A810197F1F79A83898305
:1044C00080E067E040E00E94271D8F878F8560961F
:1044D0000FB6F894DEBF0FBECDBFCF91DF91089528
:1044E000DF93CF93CDB7DEB760970FB6F894DEBFFA
:1044F0000FBECDBF888B81E08F8780E065E041E013
:104500000E94271D8F8780E066E040E00E94271D03
:104510008F8781E068890E94C51F8F8780E067E0F0
:1045200041E00E94271D8F8780E090E0A0E0B0E48A
:104530008B879C87AD87BE876B857C858D859E85A7
:1045400020E030E04AE755E40E941F02DC01CB0185
:104550008F839887A987BA876F81788589859A859F
:1045600020E030E040E85FE30E94790388232CF4E8
:1045700081E090E09E838D833FC06F81788589853F
:104580009A8520E03FEF4FE757E40E941903181681
:104590004CF56B857C858D859E8520E030E040E282
:1045A00051E40E941F02DC01CB01BC01CD010E943D
:1045B0004900DC01CB019E838D830FC080E991E02F
:1045C0009C838B838B819C810197F1F79C838B83E8
:1045D0008D819E8101979E838D838D819E81009721
:1045E00069F714C06F81788589859A850E94490092
:1045F000DC01CB019E838D838D819E819A8389838B
:1046000089819A810197F1F79A83898380E067E035
:1046100040E00E94271D8F878F8560960FB6F89423
:10462000DEBF0FBECDBFCF91DF910895DF93CF9353
:10463000CDB7DEB72F970FB6F894DEBF0FBECDBF54
:1046400081E08F8781E06FEF0E94771F8F8781E085
:1046500060E00E94C51F8F8780E065E041E00E9416
:10466000181C8F8780E066E041E00E94181C8F874D
:1046700080E067E041E00E94181C8F8780E090E0B6
:10468000ACE0B2E48B879C87AD87BE876B857C8569
:104690008D859E8520E030E04AE755E40E941F02A8
:1046A000DC01CB018F839887A987BA876F817885D2
:1046B00089859A8520E030E040E85FE30E94790335
:1046C00088232CF481E090E09E838D833FC06F812E
:1046D000788589859A8520E03FEF4FE757E40E946F
:1046E000190318164CF56B857C858D859E8520E019
:1046F00030E040E251E40E941F02DC01CB01BC012A
:10470000CD010E944900DC01CB019E838D830FC047
:1047100080E991E09C838B838B819C810197F1F7E9
:104720009C838B838D819E8101979E838D838D8158
:104730009E81009769F714C06F81788589859A8575
:104740000E944900DC01CB019E838D838D819E8177
:104750009A83898389819A810197F1F79A83898362
:1047600088E30E94CA218F878CE00E94CA218F872C
:1047700081E00E94CA218F8786E00E94CA218F872C
:1047800080E00E94CA218F878F852F960FB6F894FC
:10479000DEBF0FBECDBFCF91DF910895DF93CF93E2
:1047A00000D000D000D0CDB7DEB78A836B834C83B6
:1047B00081E089838B81813128F58B8181508B83C6
:1047C0008A81282F30E03E832D838D819E81813028
:1047D000910531F02D813E812230310539F00CC038
:1047E0008B8180580E94CA21898307C08B818054A5
:1047F0000E94CA21898301C019828C810E94702283
:10480000898301C01982898126960FB6F894DEBF8C
:104810000FBECDBFCF91DF910895DF93CF9300D02E
:104820000F92CDB7DEB79B838A8381E089830BC06B
:10483000EA81FB8180810E94702289838A819B8129
:1048400001969B838A83EA81FB818081882381F79B
:1048500089810F900F900F90CF91DF910895DF9392
:10486000CF93CDB7DEB727970FB6F894DEBF0FBE54
:10487000CDBF8A836B835D834C8381E089838B8189
:10488000813130F58B8181508B838A81282F30E0F4
:104890003F832E838E819F818130910531F02E815F
:1048A0003F812230310539F00CC08B8180580E9445
:1048B000CA21898307C08B8180540E94CA218983C1
:1048C00001C019828C819D810E940D24898301C0C1
:1048D0001982898127960FB6F894DEBF0FBECDBF2F
:1048E000CF91DF910895DF93CF93CDB7DEB76E9769
:1048F0000FB6F894DEBF0FBECDBF8E8F81E08D8FD7
:1049000080E065E040E00E94271D8D8F80E066E03A
:1049100040E00E94271D8D8F8E8D82958F700E94A2
:10492000AE288D8F80E067E041E00E94271D8D8FCB
:1049300080E090E0A0E0B0E4898F9A8FAB8FBC8FCD
:10494000698D7A8D8B8D9C8D20E030E04AE755E4AF
:104950000E941F02DC01CB018D8B9E8BAF8BB88F29
:104960006D897E898F89988D20E030E040E85FE393
:104970000E94790388232CF481E090E09C8B8B8B40
:104980003FC06D897E898F89988D20E03FEF4FE78A
:1049900057E40E94190318164CF5698D7A8D8B8D9A
:1049A0009C8D20E030E040E251E40E941F02DC01D7
:1049B000CB01BC01CD010E944900DC01CB019C8BE5
:1049C0008B8B0FC080E991E09A8B898B89899A89BA
:1049D0000197F1F79A8B898B8B899C8901979C8B26
:1049E0008B8B8B899C89009769F714C06D897E89B0
:1049F0008F89988D0E944900DC01CB019C8B8B8BA9
:104A00008B899C89988B8F878F8598890197F1F77F
:104A1000988B8F8780E067E040E00E94271D8D8F94
:104A20008E8D0E94AE288D8F80E067E041E00E946D
:104A3000271D8D8F80E090E0A0E0B0E48B879C87FD
:104A4000AD87BE876B857C858D859E8520E030E0B7
:104A50004AE755E40E941F02DC01CB018F8398874F
:104A6000A987BA876F81788589859A8520E030E0AB
:104A700040E85FE30E94790388232CF481E090E012
:104A80009E838D833FC06F81788589859A8520E0DC
:104A90003FEF4FE757E40E94190318164CF56B855A
:104AA0007C858D859E8520E030E040E251E40E94C7
:104AB0001F02DC01CB01BC01CD010E944900DC01D9
:104AC000CB019E838D830FC080E991E09C838B8313
:104AD0008B819C810197F1F79C838B838D819E81D3
:104AE00001979E838D838D819E81009769F714C005
:104AF0006F81788589859A850E944900DC01CB0108
:104B00009E838D838D819E819A83898389819A81F9
:104B10000197F1F79A83898380E067E040E00E9483
:104B2000271D8D8F8D8D6E960FB6F894DEBF0FBE4C
:104B3000CDBFCF91DF910895DF93CF93CDB7DEB78F
:104B40006E970FB6F894DEBF0FBECDBF8E8F81E09B
:104B50008D8F80E065E041E00E94271D8D8F80E011
:104B600066E040E00E94271D8D8F8E8D82958F70AC
:104B70000E94AE288D8F80E067E041E00E94271DF3
:104B80008D8F80E090E0A0E0B0E4898F9A8FAB8FAA
:104B9000BC8F698D7A8D8B8D9C8D20E030E04AE74B
:104BA00055E40E941F02DC01CB018D8B9E8BAF8BE5
:104BB000B88F6D897E898F89988D20E030E040E83C
:104BC0005FE30E94790388232CF481E090E09C8BC2
:104BD0008B8B3FC06D897E898F89988D20E03FEF58
:104BE0004FE757E40E94190318164CF5698D7A8D2A
:104BF0008B8D9C8D20E030E040E251E40E941F024A
:104C0000DC01CB01BC01CD010E944900DC01CB01DC
:104C10009C8B8B8B0FC080E991E09A8B898B898963
:104C20009A890197F1F79A8B898B8B899C890197D7
:104C30009C8B8B8B8B899C89009769F714C06D893D
:104C40007E898F89988D0E944900DC01CB019C8B65
:104C50008B8B8B899C89988B8F878F8598890197FF
:104C6000F1F7988B8F8780E067E040E00E94271D76
:104C70008D8F8E8D0E94AE288D8F80E067E041E0A1
:104C80000E94271D8D8F80E090E0A0E0B0E48B872C
:104C90009C87AD87BE876B857C858D859E8520E052
:104CA00030E04AE755E40E941F02DC01CB018F830C
:104CB0009887A987BA876F81788589859A8520E04A
:104CC00030E040E85FE30E94790388232CF481E020
:104CD00090E09E838D833FC06F81788589859A851A
:104CE00020E03FEF4FE757E40E94190318164CF5F8
:104CF0006B857C858D859E8520E030E040E251E427
:104D00000E941F02DC01CB01BC01CD010E944900C1
:104D1000DC01CB019E838D830FC080E991E09C83F1
:104D20008B838B819C810197F1F79C838B838D8191
:104D30009E8101979E838D838D819E81009769F767
:104D400014C06F81788589859A850E944900DC01AD
:104D5000CB019E838D838D819E819A8389838981F6
:104D60009A810197F1F79A83898380E067E040E0B8
:104D70000E94271D8D8F8D8D6E960FB6F894DEBF25
:104D80000FBECDBFCF91DF910895DF93CF93CDB705
:104D9000DEB72F970FB6F894DEBF0FBECDBF81E010
:104DA0008F8781E060E041E00E94181C8F8781E0DE
:104DB00061E041E00E94181C8F8781E062E041E0E1
:104DC0000E94181C8F8781E063E041E00E94181C5C
:104DD0008F8780E065E041E00E94181C8F8780E0AB
:104DE00066E041E00E94181C8F8780E067E041E0A8
:104DF0000E94181C8F8780E090E0ACE0B2E48B87C3
:104E00009C87AD87BE876B857C858D859E8520E0E0
:104E100030E04AE755E40E941F02DC01CB018F839A
:104E20009887A987BA876F81788589859A8520E0D8
:104E300030E040E85FE30E94790388232CF481E0AE
:104E400090E09E838D833FC06F81788589859A85A8
:104E500020E03FEF4FE757E40E94190318164CF586
:104E60006B857C858D859E8520E030E040E251E4B5
:104E70000E941F02DC01CB01BC01CD010E94490050
:104E8000DC01CB019E838D830FC080E991E09C8380
:104E90008B838B819C810197F1F79C838B838D8120
:104EA0009E8101979E838D838D819E81009769F7F6
:104EB00014C06F81788589859A850E944900DC013C
:104EC000CB019E838D838D819E819A838983898185
:104ED0009A810197F1F79A83898382E00E94732473
:104EE0008F8788E20E9473248F878CE00E9473244E
:104EF0008F8781E00E9473248F8786E00E9473244D
:104F00008F8780E00E9473248F878F852F960FB63E
:104F1000F894DEBF0FBECDBFCF91DF910895DF9330
:104F2000CF9300D000D000D0CDB7DEB78A836B839B
:104F30004C8381E089838B81813128F58B8181507D
:104F40008B838A81282F30E03E832D838D819E8143
:104F50008130910531F02D813E812230310539F0CB
:104F60000CC08B8180580E947324898307C08B8179
:104F700080540E947324898301C019828C810E940D
:104F80009C25898301C01982898126960FB6F894E1
:104F9000DEBF0FBECDBFCF91DF910895DF93CF93DA
:104FA00000D00F92CDB7DEB79B838A8381E08983DF
:104FB0000BC0EA81FB8180810E949C2589838A81C4
:104FC0009B8101969B838A83EA81FB818081882370
:104FD00081F789810F900F900F90CF91DF91089505
:104FE000DF93CF93CDB7DEB727970FB6F894DEBF28
:104FF0000FBECDBF8A836B835D834C8381E0898341
:105000008B81813130F58B8181508B838A81282F70
:1050100030E03F832E838E819F818130910531F076
:105020002E813F812230310539F00CC08B818058B0
:105030000E947324898307C08B8180540E9473244B
:10504000898301C019828C819D810E94CE2789832A
:1050500001C01982898127960FB6F894DEBF0FBE72
:10506000CDBFCF91DF910895DF93CF9300D0CDB71F
:10507000DEB7898389810E94E62882EE90E00E9453
:10508000CE270F900F90CF91DF910895DF93CF93AC
:1050900000D000D0CDB7DEB789836A834B838B8184
:1050A0000E94E62822EE30E089816A81A9010E94EF
:1050B000F0270F900F900F900F90CF91DF910895F0
:1050C000DF93CF930F92CDB7DEB781E0898381E084
:1050D0000E94732489838CE00E947324898380E872
:1050E0000E94732489810F90CF91DF910895DF93FF
:1050F000CF9300D000D00F92CDB7DEB78A836B83F9
:1051000081E089838B818131F8F48B8181508B839D
:105110008A81282F30E03D832C838C819D818130D2
:10512000910531F02C813D812230310531F00AC0EA
:105130008B8180580E94732408C08B8180540E9408
:10514000732403C0198201C0198289810F900F90C6
:105150000F900F900F90CF91DF910895DF93CF9331
:1051600000D0CDB7DEB78A8381E089838A81982F0A
:10517000917081E060E0492F0E94271D89838A8118
:105180008695982F917081E061E0492F0E94271D3C
:1051900089838A8186958695982F917081E062E057
:1051A000492F0E94271D89838A8186958695869539
:1051B000982F917081E063E0492F0E94271D898319
:1051C00089810F900F90CF91DF910895DF93CF9356
:1051D00000D0CDB7DEB78A8382E0898317C089818A
:1051E000282F30E08A819AE0692F0E94D22E892FE1
:1051F000805DF901EE51FF4F80838A819AE0692F2B
:105200000E94D22E8A838981815089838A81882352
:1052100031F70F900F90CF91DF910895DF93CF93E7
:10522000CDB7DEB780E062E041E00E94181C80E06C
:1052300063E041E00E94181C80E064E041E00E94CD
:10524000181C81E064E040E00E94181C81E065E0E9
:1052500040E00E94181C81E066E040E00E94181CBB
:1052600081E067E040E00E94181C81E064E00E9459
:10527000CD1E81E065E00E94CD1E81E066E00E94C7
:10528000CD1E81E067E00E94CD1ECF91DF91089591
:10529000DF93CF9300D000D0CDB7DEB78FEF8B83F5
:1052A0001A82198219825EC08981882F90E0FC01E0
:1052B000E750FF4F908180E0692F40E00E94271D5A
:1052C0001A823DC08A81882F90E0FC01EB50FF4F8D
:1052D00090819E012D5F3F4F81E0692FA9010E94BF
:1052E000361E8B81882341F50FC08A81882F90E07C
:1052F000FC01EB50FF4F90819E012D5F3F4F81E0FD
:10530000692FA9010E94361E8B81882371F38A813F
:10531000482F50E08981282F30E0CA01880F991F5B
:10532000880F991F820F931FFC01EB51FF4F808163
:105330008B838B818C831EC08A818F5F8A838A8155
:10534000843008F4BFCF8981882F90E0FC01E750BA
:10535000FF4F908180E0692F41E00E94271D8981E5
:105360008F5F89838981843008F49ECF8FEF8B8390
:105370008B818C838C810F900F900F900F90CF9129
:10538000DF9108950F931F93DF93CF9300D000D048
:10539000CDB7DEB79B838A836C8319820FC0898166
:1053A000282F30E08A819B818C01020F131F0E94FD
:1053B0004829F801808389818F5F898399818C8155
:1053C000981768F30F900F900F900F90CF91DF9187
:1053D0001F910F910895DF93CF93CDB7DEB780E093
:1053E0000E94521ACF91DF910895DF93CF93CDB7EA
:1053F000DEB762970FB6F894DEBF0FBECDBF998BB4
:10540000888B6A8B88899989892F992780658F87EE
:105410000E94A11A8F850E94F51A88890E94651B37
:105420008A890E94651B0E94BD1B80E090E0A0E27B
:10543000B1E48B879C87AD87BE876B857C858D8526
:105440009E8520E030E04AE755E40E941F02DC011F
:10545000CB018F839887A987BA876F8178858985E3
:105460009A8520E030E040E85FE30E9479038823DA
:105470002CF481E090E09E838D833FC06F8178851E
:1054800089859A8520E03FEF4FE757E40E94190392
:1054900018164CF56B857C858D859E8520E030E067
:1054A00040E251E40E941F02DC01CB01BC01CD01AE
:1054B0000E944900DC01CB019E838D830FC080E9EF
:1054C00091E09C838B838B819C810197F1F79C8376
:1054D0008B838D819E8101979E838D838D819E819B
:1054E000009769F714C06F81788589859A850E9435
:1054F0004900DC01CB019E838D838D819E819A833F
:10550000898389819A810197F1F79A8389836296C9
:105510000FB6F894DEBF0FBECDBFCF91DF910895D7
:10552000DF93CF9300D000D0CDB7DEB79C838B83C1
:105530008B819C81892F9927806589830E94A11A7C
:1055400089810E94F51A8B810E94651B0E94CB1AEB
:1055500089810E942D1BCE0102960E948E1B0E9403
:10556000BD1B8A810F900F900F900F90CF91DF910C
:105570000895DF93CF93CDB7DEB729970FB6F89490
:10558000DEBF0FBECDBF9E838D8378876F83498733
:105590008F8198859C838B831A8219821A82198243
:1055A00017C0EB81FC8120818D819E81622F0E943A
:1055B000F5298D819E8101969E838D838B819C81AF
:1055C00001969C838B8389819A8101969A83898332
:1055D0008985282F30E089819A81821793070CF3FF
:1055E00029960FB6F894DEBF0FBECDBFCF91DF91E5
:1055F00008950F931F93DF93CF93CDB7DEB729970D
:105600000FB6F894DEBF0FBECDBF9E838D83788723
:105610006F8349878F8198859C838B831A82198237
:105620001A82198217C029813A818B819C818C0151
:10563000020F131F8D819E810E94902AF8018083A2
:105640008D819E8101969E838D8389819A810196A9
:105650009A8389838985282F30E089819A818217EE
:1056600093070CF329960FB6F894DEBF0FBECDBF9B
:10567000CF91DF911F910F910895DF93CF9300D0C9
:1056800000D0CDB7DEB79C838B831A8219821A8231
:1056900019820FC08B819C816FEF0E94F5298B814D
:1056A0009C8101969C838B8389819A8101969A8340
:1056B000898389819A818830910564F30F900F90D6
:1056C0000F900F90CF91DF910895DF93CF9300D08B
:1056D00000D0CDB7DEB79A8389837C836B8313C0F8
:1056E00049815A8189819A8101969A838983EB81C4
:1056F000FC812081CA01622F0E94F5298B819C8147
:1057000001969C838B83EB81FC818081882341F708
:105710000F900F900F900F90CF91DF910895DF932E
:10572000CF9300D00F92CDB7DEB78A836B8381E031
:1057300089838A816B8141E00E94271D8983898149
:105740000F900F900F90CF91DF910895DF93CF933B
:1057500000D00F92CDB7DEB78A836B8381E0898357
:105760008A816B8140E00E94271D898389810F9087
:105770000F900F90CF91DF910895DF93CF93CDB726
:10578000DEB70E94C62B0E94D32BFFCFDF93CF93AF
:10579000CDB7DEB70E940E290E94C5260E94EB29D4
:1057A000CF91DF910895DF93CF93CDB7DEB76097A8
:1057B0000FB6F894DEBF0FBECDBF0E94602820E672
:1057C00030E081E063E0A9010E94F02780E090E8EA
:1057D000ABEBB4E48B879C87AD87BE876B857C85FC
:1057E0008D859E8520E030E04AE755E40E941F0247
:1057F000DC01CB018F839887A987BA876F81788571
:1058000089859A8520E030E040E85FE30E947903D3
:1058100088232CF481E090E09E838D833FC06F81CC
:10582000788589859A8520E03FEF4FE757E40E940D
:10583000190318164CF56B857C858D859E8520E0B7
:1058400030E040E251E40E941F02DC01CB01BC01C8
:10585000CD010E944900DC01CB019E838D830FC0E6
:1058600080E991E09C838B838B819C810197F1F788
:105870009C838B838D819E8101979E838D838D81F7
:105880009E81009769F714C06F81788589859A8514
:105890000E944900DC01CB019E838D838D819E8116
:1058A0009A83898389819A810197F1F79A83898301
:1058B0000E9460282BE630E081E061E0A9010E94AF
:1058C000F0272AE730E082E061E0A9010E94F0279A
:1058D0000E94482980930D0104C00E9448298093AA
:1058E0000D0180910D01813321F080910D018233F2
:1058F000A1F780910D01282F30E0388B2F878F85FD
:1059000098898133910531F02F853889223331050B
:1059100021F005C00E94982C02C00E94552D60966F
:105920000FB6F894DEBF0FBECDBFCF91DF910895C3
:10593000DF93CF93CDB7DEB72F970FB6F894DEBFC6
:105940000FBECDBF1F8628E031E080E090E0B901B6
:1059500044E00E94F92A80910801882309F08DC053
:105960000E94602828E830E081E062E0A9010E94FE
:10597000F02780E090E8ABEBB4E48B879C87AD87A1
:10598000BE876B857C858D859E8520E030E04AE76B
:1059900055E40E941F02DC01CB018F839887A98701
:1059A000BA876F81788589859A8520E030E040E864
:1059B0005FE30E94790388232CF481E090E09E83CA
:1059C0008D833FC06F81788589859A8520E03FEF80
:1059D0004FE757E40E94190318164CF56B857C8538
:1059E0008D859E8520E030E040E251E40E941F0258
:1059F000DC01CB01BC01CD010E944900DC01CB01DF
:105A00009E838D830FC080E991E09C838B838B8183
:105A10009C810197F1F79C838B838D819E810197F7
:105A20009E838D838D819E81009769F714C06F815D
:105A3000788589859A850E944900DC01CB019E8387
:105A40008D838D819E819A83898389819A81019733
:105A5000F1F79A8389830E94A22D0E94E52D8F87FA
:105A60008F858130C9F08F858230B1F40E94602823
:105A700085E990E00E94CE270FC00E94E52D8F8718
:105A80008F85813049F08F85823031F40E94602803
:105A900085E990E00E94CE272F960FB6F894DEBFDE
:105AA0000FBECDBFCF91DF910895DF93CF9300D08C
:105AB0000F92CDB7DEB71B821A8219820E9460282E
:105AC00086EA90E00E94CE2781E066E00E94772877
:105AD0008DE00E9473241EC00E944829898303C060
